:1000000012C043C050C017C016C015C014C013C0E2
:1000100012C011C010C00FC00EC00DC00CC00BC06C
:100020000AC009C008C011241FBECFE5D4E0DEBF5E
:10003000CDBF02D04FC0E4CF10D004D018D041D0F3
:10004000FDCF08958A98929A8B98939A0AE005BFFB
:100050000BB7006C0BBF7894089501E80FBD09E061
:100060000EBD00270BBD04E60ABDB99A08953130D4
:1000700019F0323029F007C00AB501700ABD03C07B
:100080000AB501500ABD332708951BD022272ABF85
:1000900020B32C70283019F0243019F0189531E075
:1000A000189532E018950DD022272ABF20B32C7066
:1000B000283019F0243019F0189531E0189532E005
:1000C00018951FEF1F931FEF1A95F1F71F911A95BF
:0800D000C9F70895F894FFCF71
:00000001FF
