:1000000012C049C056C017C016C015C014C013C0D6
:1000100012C011C010C00FC00EC00DC00CC00BC06C
:100020000AC009C008C011241FBECFE5D4E0DEBF5E
:10003000CDBF02D055C0E4CF10D004D018D047D0E7
:10004000FDCF08958A98929A8B98939A0AE005BFFB
:100050000BB7006C0BBF7894089501E80FBD09E061
:100060000EBD00270BBD04E60ABDB99A08953130D4
:1000700019F0323041F00DC00BB50AB505700ABD5C
:1000800000270BBD06C00BB50AB505500ABD0027F9
:100090000BBD332708951BD022272ABF20B32C7015
:1000A000283019F0243019F0189531E0189532E015
:1000B00018950DD022272ABF20B32C70283019F0B4
:1000C000243019F0189531E0189532E018951FEF9B
:1000D0001F931FEF1A95F1F71F911A95C9F708950D
:0400E000F894FFCFC2
:00000001FF
