:1000000012C037C044C017C016C015C014C013C0FA
:1000100012C011C010C00FC00EC00DC00CC00BC06C
:100020000AC009C008C011241FBECFE5D4E0DEBF5E
:10003000CDBF02D043C0E4CF0FD003D013D0FECF4A
:1000400008958A98929A8B98939A0AE005BF0BB705
:10005000006C0BBF7894089500E40FBD01E00EBD65
:10006000B99A0895313019F0323011F001C000C052
:10007000089522272ABF20B32C70283019F024308D
:1000800019F0189531E0189532E00FD01895222715
:100090002ABF20B32C70283019F0243019F018959D
:1000A00031E0189532E001D018951FEF1F931FEF34
:1000B0001A95F1F71F911A95C9F70895F894FFCF93
:00000001FF
