:1000000012C019C018C017C016C015C014C013C044
:1000100012C044C010C00FC00EC00DC00CC00BC039
:100020000AC009C008C011241FBECFE5D4E0DEBF5E
:10003000CDBF02D04FC0E4CF0BD03CD004D012D003
:1000400040D0FDCF08958A98929A8B98939A0895FC
:1000500001EC0FBD09E00EBD00270BBD0FE70ABD87
:10006000B99A0895313019F0323061F015C00BB5EE
:100070000AB5039503950395039503950ABD0027DB
:100080000BBD0AC00BB50AB50A950A950A950A95E3
:100090000A950ABD00270BBD33270895332720B3E7
:1000A0002C70283019F0243019F0189531E018958B
:1000B00032E0189501E0046003BF01E009BF7894C5
:1000C00008951FEF1F931FEF1A95F1F71F911A95CF
:0800D000C9F70895F894FFCF71
:00000001FF
